:020000040800F2
:10000000A00800205D040008F5010008F7010008C1
:10001000FB010008FF0100080302000800000000C7
:1000200000000000000000000000000007020008BF
:1000300009020008000000000B0200080D02000881
:1000400077040008770400087704000877040008A4
:100050007704000877040008770400087704000894
:1000600077040008EB3200087704000877040008E2
:100070007704000877040008770400087704000874
:100080007704000877040008770400087704000864
:100090007704000877040008770400087704000854
:1000A0007704000877040008770400087704000844
:1000B0001D270008052700087704000877040008BA
:1000C0007704000877040008770400087704000824
:1000D00077040008770400083B2D00087704000827
:1000E00077040008770400087704000800F002F89D
:1000F00000F06AF80AA090E8000C82448344AAF158
:100100000107DA4501D100F05FF8AFF2090EBAE855
:100110000F0013F0010F18BFFB1A43F0010318473B
:100120004CAA00006CAA00000A444FF0000C10F822
:10013000013B13F0070408BF10F8014B1D1108BF65
:1001400010F8015B641E05D010F8016B641E01F805
:10015000016BF9D113F0080F1EBF10F8014BAD1C55
:100160000C1B09D16D1E58BF01F801CBFAD505E073
:1001700014F8016B01F8016B6D1EF9D59142D6D3CD
:10018000704700000023002400250026103A28BFF5
:1001900078C1FBD8520728BF30C148BF0B607047F9
:1001A000662909F05A85642906F0608700207047A7
:1001B0001FB507F0EBFA04000020002108F0FCFB5B
:1001C000E0601FBD10B510BD07F024FC1146FFF71D
:1001D000EFFF00F00DF907F042FC03B4FFF7F2FF68
:1001E00003BC02F023F8000030BF72B662B680F3A1
:1001F00008887047704700BFFEE700BFFEE700BFFA
:10020000FEE700BFFEE77047704770477047000089
:100210000CB50020019000906C48006840F48030DC
:100220006A49086000BF6948006800F40030009027
:100230000198401C0190009818B90198B0F5A06F82
:10024000F1D16248006800F4003010B10120009044
:1002500001E0002000900098012843D15C4800682C
:1002600040F010005A4908600846006820F003007A
:1002700008600846006840F0020008605348406883
:10028000524948600846406848600846406840F463
:10029000806048600846406820F47C10486008464A
:1002A000406840F4E81048600846006840F08070FC
:1002B000086000BF4548006800F000700028F9D0D1
:1002C0004248406820F003004049486008464068C2
:1002D00040F00200486000BF3C48406800F00C005D
:1002E0000828F9D10CBD10B5FFF792FF10BD10B56D
:1002F0003648006840F0010034490860084640680C
:10030000344908403149486008460068324908408D
:100310002E4908600846006820F4802008600846DE
:10032000406820F4FE0048604FF41F008860FFF72B
:10033000DAFF4FF000602949086010BD10B50021B8
:1003400000200022214B5B6803F00C0121B104293D
:1003500006D0082928D107E0214B224C236027E052
:100360001F4B204C236023E0184B5B6803F4701094
:10037000164B5B6803F48032022303EB904022B9F2
:10038000194B4343174C23600DE0104B5B6803F49B
:10039000003323B1144B4343124C236003E0104B52
:1003A0004343104C236003E00D4B0E4C236000BF11
:1003B00000BF064B5B68C3F303130C4CE15C094BB5
:1003C0001B68CB40074C236010BD000000100240AA
:1003D000002002400000FFF8FFFFF6FE08ED00E0FD
:1003E00000127A000000002000093D0004000020F7
:1003F00001F054FD4FF4E13001F027FF022001F03D
:10040000A7FE012001F0A4FE01F062FF01F092FFBF
:10041000002141F61F4002F063F84FF4165002F03D
:100420003FFC02F0B3F802F0FEF802F089F903F0A5
:100430008CFB03F09EFB02F009FC0AE00120054959
:10044000087000200449087000BF024800780028A6
:10045000FBD1F3E73D0000203C0000200948804725
:1004600009480047FEE7FEE7FEE7FEE7FEE7FEE796
:10047000FEE7FEE7FEE7FEE704480549054A064BAE
:1004800070470000EF020008ED000008A002002005
:10049000A0080020A0040020A0040020314901434E
:1004A000314A1160704770B5002100230F22C478D3
:1004B00004B32D4C246804F4E064C4F5E064210A1C
:1004C000C1F10403CA40447804FA03F1847814406B
:1004D00021430901254C0678A155047804F01F0535
:1004E0000124AC4005786D11AD0005F1E025C5F89B
:1004F000004109E0047804F01F050124AC401C4DC4
:100500000678761145F8264070BD1A4A0A40024323
:10051000154B1B1F1A60704739B1134A121D126820
:100520000243114B1B1D1A6006E00F4A121D126890
:1005300082430D4B1B1D1A607047042808D14FF0F1
:10054000E021096941F004014FF0E022116107E068
:100550004FF0E021096921F004014FF0E022116120
:10056000704700000000FA050CED00E000E400E038
:1005700080E100E080FFFF1F10B50446CC488442B4
:1005800008D10121042000F02DFB0021042000F0FF
:1005900029FB46E0C748844208D10121082000F029
:1005A00021FB0021082000F01DFB3AE0C2488442F4
:1005B00008D10121102000F015FB0021102000F0CF
:1005C00011FB2EE0BD48844208D10121202000F01B
:1005D00009FB0021202000F005FB22E0B8488442FE
:1005E00008D10121402000F0FDFA0021402000F058
:1005F000F9FA16E0B348844208D10121802000F0C6
:10060000F1FA0021802000F0EDFA0AE0AE488442C1
:1006100007D10121801500F0E5FA0021A01500F0B6
:10062000E1FA10BD10B50121084600F0DBFA002107
:10063000012000F0D7FA10BD2DE9F0410246002557
:100640000026002000230024002791F803C00CF0AE
:100650000F0591F803C00CF0100CBCF1000F03D093
:1006600091F802C04CEA050591F800C0BCF1000FFA
:1006700031D0146800202BE04FF0010C0CFA00F38D
:10068000B1F800C00CEA03069E4220D183004FF06F
:100690000F0C0CFA03F7BC4305FA03FC4CEA040404
:1006A00091F803C0BCF1280F06D14FF0010C0CFAF1
:1006B00000FCC2F814C00AE091F803C0BCF1480F76
:1006C00005D14FF0010C0CFA00FCC2F810C0401C20
:1006D0000828D1D31460B1F800C0BCF1FF0F34DD9D
:1006E000546800202EE000F1080C4FF0010808FAD1
:1006F0000CF3B1F800C00CEA03069E4221D183003E
:100700004FF00F0C0CFA03F7BC4305FA03FC4CEA5C
:10071000040491F803C0BCF1280F05D100F1080CC6
:1007200008FA0CF8C2F8148091F803C0BCF1480F25
:1007300007D100F1080C4FF0010808FA0CF8C2F8D4
:100740001080401C0828CED35460BDE8F0814FF6DD
:10075000FF710180022181700421C170704702463F
:10076000002093680B400BB1012000E0002070478F
:100770000146886880B2704702460020D3680B406B
:100780000BB1012000E0002070470146C86880B22C
:10079000704701617047416170470AB1016100E033
:1007A00041617047C16070474FF480320A438261F3
:1007B0008161826182698269704702460020434BF1
:1007C00018684FF68073184040EA021008433F4B08
:1007D000186070473E49C8617047F0B50A4600236B
:1007E00000240021002500F00046B6F1004F02D1A0
:1007F000364EF16901E0354E7168C0F3034583B2AE
:1008000000F44016B6F5401F08D121F070612F4E5C
:10081000766826F070662D4F7E6012E000F4801638
:10082000B6F5801F06D1032606FA05F4A14341F070
:10083000706106E0460D360103FA06F6B14341F059
:10084000706122B1460D360103FA06F6314300F01D
:100850000046B6F1004F02D11C4EF16101E01B4E83
:100860007160F0BD30B500228B071C0F0F2303FA17
:1008700004F2164B08338C1053F824309343134C76
:1008800008348D1044F8253023468C1053F824305A
:100890008C07240F00FA04F423430C4C08348D1009
:1008A00044F8253030BD0A49DC310860704700004B
:1008B00000080140000C01400010014000140140FC
:1008C00000180140001C01400020014000000140D0
:1008D00000002042DF48006840F00100DD49086068
:1008E00008464068DC490840DA4948600846006824
:1008F000DA490840D74908600846006820F480209B
:1009000008600846406820F4FE0048604FF41F006D
:1009100088607047CF49096821F48031CD4A116061
:100920001146096821F480211160B0F5803F03D0A1
:10093000B0F5802F0ED106E0C649096841F4803138
:10094000C44A116007E0C349096841F4A021C14AC3
:10095000116000E000BF00BF704710B501460022E3
:10096000002300204A11012A02D1BA4C236806E074
:10097000022A02D1B74C236A01E0B64C636A01F047
:100980001F02012494401C400CB1012000E0002013
:1009900010BD38B5002000900024002500BF312094
:1009A000FFF7DBFF05460098401C00900098B0F56B
:1009B000A06F01D0002DF2D03120FFF7CEFF08B19B
:1009C000012400E00024204638BD01460020A14A51
:1009D000106820F0F80040EAC10010607047A0499C
:1009E00008607047024600209A4B586820F47C103B
:1009F00042EA01031843974B5860704798490866CC
:100A0000704701460020934A506820F003000843D5
:100A1000506070478F48406800F00C0070470146F6
:100A200000208C4A506820F0F00008435060704766
:100A300001460020874A506820F4E0600843506077
:100A4000704701460020834A506820F4605040EA15
:100A5000C1005060704729B17E4A527A02437D4BF3
:100A60005A7204E07B4A527A82437A4B5A72704738
:100A70007B49D8310860704701460020754A5068AC
:100A800020F440400843506070470021714A2032F2
:100A90001170704A82F82010012802D004280AD16F
:100AA00004E001216B4A2032117005E00521694AFA
:100AB0002032117000E000BF00BF70476949086034
:100AC00070476449096A0143624A11627047654987
:100AD00044390860704730B500210022002400230B
:100AE0005C4D6D6805F00C0121B1042905D0082981
:100AF00023D105E05C4D056022E05B4D05601FE001
:100B0000544D6D6805F47012524D6D6805F48034D3
:100B1000022505EB92421CB9544D554305600BE08C
:100B20004C4D6D6805F400351DB1504D55430560C1
:100B300002E04D4D5543056002E04B4D056000BF9E
:100B400000BF444D6D6805F0F0010909484D6B5C2C
:100B50000568DD4045603F4D6D6805F4E061090AB8
:100B6000434D6B5C4568DD4085603A4D6D6805F42A
:100B70006051C90A3E4D6B5C4568DD40C560354D2E
:100B80006D6805F44041890B3A4D6B5CC568B5FB57
:100B9000F3F5056130BD29B12E4A526902432D4B50
:100BA0005A6104E02B4A526982432A4B5A617047CA
:100BB00029B1284A92690243264B9A6104E0254AEA
:100BC00092698243234B9A61704729B1214AD269C5
:100BD0000243204BDA6104E01E4AD26982431D4B76
:100BE000DA61704729B11B4AD2680243194BDA60B7
:100BF00004E0184AD2688243164BDA60704729B184
:100C0000144A12690243134B1A6104E0114A126933
:100C10008243104B1A61704712494039086070478F
:100C20000F49C86470470B49C87170470948406A4A
:100C300040F0807007494862704701460020054A2D
:100C400092680A400AB1012000E000207047014983
:100C500088727047001002400000FFF8FFFFF6FEA8
:100C6000000042428004424200127A0000093D0026
:100C7000440000205400002010B50446FE48844281
:100C800008D10121C014FFF7ADFF0021E014FFF7E8
:100C9000A9FFC4E0B4F1804F08D101210846FFF755
:100CA000AEFF00210120FFF7AAFFB8E0F34884421D
:100CB00008D101210220FFF7A2FF00210220FFF747
:100CC0009EFFACE0EE48844208D101210420FFF7EA
:100CD00096FF00210420FFF792FFA0E0E94884423C
:100CE00008D101210820FFF78AFF00210820FFF723
:100CF00086FF94E0E448844208D101211020FFF7E8
:100D00007EFF00211020FFF77AFF88E0DF48844251
:100D100008D101212020FFF772FF00212020FFF7DA
:100D20006EFF7CE0DA48844208D101214014FFF7CD
:100D300059FF00216014FFF755FF70E0D548844249
:100D400009D10121C804FFF74DFF00214FF4002015
:100D5000FFF748FF63E0D048844209D1012108052C
:100D6000FFF740FF00214FF48010FFF73BFF56E0F4
:100D7000CA48844209D101214805FFF733FF002109
:100D80004FF40010FFF72EFF49E0C548844208D118
:100D900001214020FFF733FF00214020FFF72FFF04
:100DA0003DE0C048844208D101218020FFF727FFA1
:100DB00000218020FFF723FF31E0BB48844208D1A7
:100DC00001218015FFF71BFF0021A015FFF717FF7A
:100DD00025E0B648844209D101210804FFF702FF4B
:100DE00000214FF48030FFF7FDFE18E0B048844248
:100DF00009D101214804FFF7F5FE00214FF400302E
:100E0000FFF7F0FE0BE0AB48844208D101218804D3
:100E1000FFF7E8FE00214FF48020FFF7E3FE10BD4E
:100E200000220288944B98420ED0994B98420BD0E6
:100E3000B0F1804F08D0914B984205D0904B98422A
:100E400002D0904B984204D14FF68F731A404B88D2
:100E50001A438D4B984207D08C4B984204D04FF6E2
:100E6000FF431A40CB881A4302808B8883850B8806
:100E70000385814B98420BD0854B984208D08B4B11
:100E8000984205D08A4B984202D08A4B984201D1B1
:100E90000B7A038601238382704770B500240022F9
:100EA0000023058C4FF6FE7635400584028C83883E
:100EB000048B4FF68F752C40B51E2C400D882C43AB
:100EC000751E2A400D892A434D882A436A4DA8423F
:100ED0000BD06F4DA84208D0744DA84205D0744D78
:100EE000A84202D0734DA84213D14FF6F7752A409D
:100EF0004D892A434FF6FB752A408D882A434FF6C9
:100F0000FF652B404FF6FF552B408D892B43CD8934
:100F10002B4383800483CD888586028470BD70B5A1
:100F2000002400220023058C4FF6EF76354005841F
:100F3000028C8388048B48F6FF752C404FF6FF45E2
:100F40002C400D884FF6FF7606EA05252C434FF618
:100F5000DF752A400D8906EA05152A434D8806EA01
:100F600005152A43444DA84202D0494DA8421DD13F
:100F70004FF67F752A404D894FF6FF7606EA051534
:100F80002A434FF6BF752A408D8806EA05152A4385
:100F90004FF6FF352B404FF2FF752B408D8906EA47
:100FA00085052B43CD8906EA85052B438380048381
:100FB000CD880587028470BD70B50024002200230F
:100FC000058C4FF6FF6635400584028C8388848B40
:100FD0004FF68F752C404FF6FC752C400D882C4336
:100FE0004FF6FF552A400D894FF6FF7606EA052594
:100FF0002A434D8806EA05252A431F4DA84202D000
:10100000234DA8421DD14FF2FF752A404D894FF65E
:10101000FF7606EA05252A434FF6FF352A408D88DC
:1010200006EA05252A434EF6FF752B404DF6FF755F
:101030002B408D8906EA05152B43CD8906EA051557
:101040002B4383808483CD888587028470BD70B5EF
:10105000002200230024058C4EF6FF7635400584DF
:10106000038C8488828B48F6FF752A404FF6FF4533
:101070002A400D8820E00000002C014000040040C0
:1010800000080040000C0040001000400014004028
:1010900000340140004C0140005001400054014028
:1010A00000180040001C00400020004000400140AB
:1010B00000440140004801404FF6FF7606EA05254E
:1010C0002A434DF6FF752B400D8906EA05352B4363
:1010D0004D8806EA05352B43FA4DA84202D0FA4D59
:1010E000A84208D14BF6FF752C408D894FF6FF764C
:1010F00006EA85152C4384808283CD88A0F8405071
:10110000038470BD828B4FF2FF331A408283828B3F
:101110004FF6FF7303EA01231A4382837047F0B549
:101120000C461546002200210026078C4EF6FF7C57
:1011300007EA0C070784828B018C4FF6FF7707EADA
:10114000043640F6FF473A404FF6FF7707EA052797
:101150003A434FF6FF7707EA03373A43D94FB8428D
:101160000ED0D94FB8420BD0B0F1804F08D0D74F36
:10117000B84205D0D64FB84202D0D64FB84206D1B9
:101180004DF6FF77394046F48057394305E047F67E
:10119000FF57394044F48057394382830184F0BDBE
:1011A000828B4FF6F3731A408283828B0A438283C9
:1011B0007047F0B50C461546002200210026078C2A
:1011C0004FF6FF6C07EA0C070784828B018C4FF601
:1011D000FF7707EA04264FF60C773A404FF6FF7781
:1011E00007EA03172F433A43B64FB8420ED0B64F23
:1011F000B8420BD0B0F1804F08D0B44FB84205D000
:10120000B34FB84202D0B34FB84206D14FF6FF57A2
:10121000394046F48077394305E04FF2FF573940B3
:1012200044F48077394382830184F0BD028B4FF20E
:10123000FF331A400283028B4FF6FF7303EA012348
:101240001A4302837047F0B50C4615460022002170
:101250000026078C4FF6EF7C07EA0C070784028B09
:10126000018C4FF6FF7707EA041640F6FF473A4035
:101270004FF6FF7707EA03373A434FF6FF7707EA5F
:1012800005273A438F4FB8420ED08F4FB8420BD04C
:10129000B0F1804F08D08D4FB84205D08C4FB84286
:1012A00002D08C4FB84206D14FF6DF77394046F076
:1012B0001007394305E04FF65F77394044F01007D7
:1012C000394302830184F0BD028B4FF6F3731A4059
:1012D0000283028B0A4302837047F0B50C46154621
:1012E00000220021068C4FF6FE773E400684028BDA
:1012F000018C4FF60C7632407E1C06EA03162E4314
:101300003243704EB0420ED06F4EB0420BD0B0F1AF
:10131000804F08D06D4EB04205D06D4EB04202D025
:101320006C4EB04206D14FF6FD76314044F00106D6
:10133000314305E04FF6F576314044F00106314384
:1013400002830184F0BD70B505460C465D488542B8
:101350000ED05D4885420BD0B5F1804F08D05B4878
:10136000854205D05A48854202D05A48854200D16C
:1013700000E000BF208850B92389A28861882846F0
:10138000FFF7ABFFE1882846FFF79EFF25E02088A6
:1013900004280AD12389A28861882846FFF753FFD1
:1013A000E1882846FFF742FF17E0208808280AD185
:1013B0002389A28861882846FFF7FBFEE18828463A
:1013C000FFF7EEFE09E02389A28861882846FFF72F
:1013D000A6FEE1882846FFF795FE70BD2DE9F04195
:1013E00005460C4600260127608808B9022600E061
:1013F0000026A088012801D1022700E001272088CB
:10140000A0B92389A28861882846FFF766FFE18892
:101410002846FFF759FF23893A4631462846FFF709
:1014200012FFE1882846FFF701FF13E02389A28815
:1014300061882846FFF707FFE1882846FFF7F6FE98
:1014400023893A4631462846FFF747FFE188284678
:10145000FFF73AFFBDE8F0810A884B881A438B8872
:101460001A43CB881A430B891A434B891A438B8939
:101470001A43A0F8442070474FF6FF718180002185
:101480000180C1804180017270470021018041804C
:101490008180C180018141818181C18170470021AA
:1014A00001804180012181800021C180018170473C
:1014B0000021018041808180C18001814181818141
:1014C00070470000002C014000340140000400403F
:1014D00000080040000C004021B1028842F00102E7
:1014E000028004E002884FF6FE731A4002807047C3
:1014F00031B1B0F8442042F40042A0F8442005E0A5
:10150000B0F84420C2F30E02A0F8442070471AB18C
:1015100083890B43838102E083898B4383817047F6
:101520008182704741EA0203A0F8483070471AB13F
:1015300083890B43838102E083898B4383817047D6
:1015400001894FF6F8721140018170470A46002167
:1015500001894FF68F73194011430181704730B5EF
:1015600004460D4629462046FFF7F0FF208940F04B
:101570000700208130BD2DE9F04104460D46164696
:101580001F46602D06D13B46012231462046FFF71B
:101590005AFE05E03B46012231462046FFF79DFEFC
:1015A00029462046FFF7D2FF208940F0070020811E
:1015B000BDE8F08130B50C4600210189C9B24FF673
:1015C000FF7505EA0325154325432943018130BDF5
:1015D0002DE9F04105460E4617469846002443463D
:1015E0003A4631462846FFF7E5FF2C894FF6F8705A
:1015F000044044F007044FF68F70044044F0700438
:101600002C81BDE8F081F0B504460D4616461F4614
:101610003B46324629462046FFF7CCFF208940F45E
:1016200080402081F0BD0185828270470A460021FA
:1016300001884FF68F731940114301807047F0B550
:101640000C4615461E460021002200230189028B0C
:10165000038C4FF6F877394021434FF6FC473A4068
:1016600040F201173A434FF6DD773B404FF6FF77E4
:1016700007EA06172F433B43018102830384F0BD31
:101680000A460021018B4FF68F73194011430183E5
:1016900070470A460021018B48F6FF7319404FF648
:1016A000FF7303EA02231943018370470A460021AE
:1016B000818B4FF68F7319401143818370470A461F
:1016C0000021818B48F6FF7319404FF6FF7303EA40
:1016D000022319438183704721B1028842F08002BE
:1016E000028004E002884FF67F731A400280704740
:1016F00021B1828842F00402828004E082884FF6A1
:10170000FB731A408280704721B1828842F0080240
:10171000828004E082884FF6F7731A408280704717
:1017200021B1828842F00102828004E082884FF673
:10173000FE731A40828070470A460021018B4FF6E3
:10174000F77319401143018370470A460021018B4A
:101750004FF2FF7319404FF6FF7303EA0223194358
:10176000018370470A460021818B4FF6F7731940B9
:101770001143818370470A460021818B4FF2FF732A
:1017800019404FF6FF7303EA022319438183704720
:101790000A460021018B4FF6FB7319401143018368
:1017A00070470A460021018B4FF6FF3319404FF670
:1017B000FF7303EA02231943018370470A4600219D
:1017C000818B4FF6FB7319401143818370470A46A2
:1017D0000021818B4FF6FF3319404FF6FF7303EA68
:1017E00002231943818370470A460021018B4FF67B
:1017F0007F7319401143018370470A460021018B12
:10180000C1F30E014FF6FF7303EA0223194301836C
:1018100070470A460021818B4FF67F7319401143B0
:10182000818370470A460021818BC1F30E014FF678
:10183000FF7303EA02231943818370470A4600219C
:10184000018C4FF6FD7319401143018470470A461D
:101850000021018C4FF6F773194011430184704742
:101860000A460021018C4FF6DF7319404FF6FF73D3
:1018700003EA02131943018470470A460021018CD0
:101880004FF67F7319404FF6FF7303EA02131943B3
:10189000018470470A460021018C4FF6FF5319401E
:1018A0004FF6FF7303EA02231943018470470A4687
:1018B0000021018C4FF2FF7319404FF6FF7303EACA
:1018C00002231943018470470A460021018C4DF61A
:1018D000FF7319404FF6FF7303EA02331943018483
:1018E000704730B5002301248C40A3B2048C9C4384
:1018F0000484048C02FA01F5ADB22C43048430BD9B
:1019000030B5002304248C40A3B2048C9C4304848F
:10191000048C02FA01F5ADB22C43048430BD70B5DD
:101920000346002000241846183001258D40ACB233
:101930001D8CA5431D8409B1082909D100EB610064
:10194000056825F0700505600568154305600EE023
:101950000D1FC5F34E052844056825F4E0450560D4
:1019600005684FF6FF7606EA02263543056070BD2E
:1019700021B1028842F00202028004E002884FF6A0
:10198000FD731A400280704721B1028842F00402C0
:10199000028004E002884FF6FB731A400280704711
:1019A00021B1828842F08002828004E082884FF672
:1019B0007F731A408280704702884FF6F7731A408F
:1019C000028002880A430280704782884FF68F7334
:1019D0001A40828082880A438280704702894FF6CB
:1019E000F8731A40028102890A4302817047028912
:1019F0004FF67F731A40028102890A4302817047C1
:101A00008184704781857047818670470187704760
:101A100081877047A0F84010704702884FF6FF4357
:101A20001A40028002880A43028070470146888E6D
:101A300070470146088F70470146888F70470146FE
:101A4000B1F8400070470146888C70470146088D08
:101A5000704702460020138A0B400BB1012000E0C2
:101A600000207047CA430282704730B5024600200A
:101A700000230024158A05EA0103958905EA01047B
:101A800013B10CB1012000E0002030BDCA43028236
:101A90007047000010B50446FB48844209D101217B
:101AA0008803FFF79FF800214FF48040FFF79AF872
:101AB00032E0F648844209D101214804FFF79FF83B
:101AC00000214FF40030FFF79AF825E0F0488442F7
:101AD00009D101218804FFF792F800214FF48020FA
:101AE000FFF78DF818E0EB48844209D10121C804C2
:101AF000FFF785F800214FF40020FFF780F80BE096
:101B0000E548844208D101210805FFF778F8002153
:101B10004FF48010FFF773F810BD2DE9F04786B041
:101B200005460E460024A24600BFA1460027B08904
:101B300000B100BF2F462C8A4CF6FF700440F0889D
:101B400004432C82AC894EF6F3100440B0883189EE
:101B50000843718908430443AC81AC8A4FF6FF40C7
:101B60000440B0890443AC8201A8FEF7B4FFC64824
:101B7000874202D1DDF810A001E0DDF80CA0A889B1
:101B800000F4004040B10AEBCA0000EB0A103168D3
:101B90004900B0FBF1F807E00AEBCA0000EB0A10BD
:101BA00031688900B0FBF1F86420B8FBF0F0040163
:101BB0002009642101FB1089A88900F4004040B18C
:101BC000322000EBC900B0FBF1F000F00700044345
:101BD00008E0322000EB09106421B0FBF1F000F0C6
:101BE0000F0004432C8106B0BDE8F0874FF4165176
:101BF000016000218180C18001810C21418100218F
:101C00008181704710B502460020108A4FF2FF0311
:101C100018400B884C8823438C882343CC8823436B
:101C20001843108210BD0021018041808180C18055
:101C3000704721B1828942F40052828104E0828996
:101C40004DF6FF731A4082817047F0B503460024B9
:101C500000260025002040F66A17B94200D100BFD7
:101C60001846C1F3421401F01F06012707FA06F5D2
:101C7000012C01D10C3004E0022C01D1103000E025
:101C800014301AB107682F43076002E00768AF43BA
:101C90000760F0BD1AB1838A0B43838202E0838A16
:101CA0008B4383827047028A4FF6F0731A40028298
:101CB000028A0A430282704782894FF2FF731A40F8
:101CC000828182890A438281704721B1828942F0F0
:101CD0000202828104E082894FF6FD731A408281FC
:101CE0007047028A4FF6DF731A400282028A0A4363
:101CF0000282704721B1028A42F48042028204E0EB
:101D0000028A4BF6FF731A4002827047C1F3080241
:101D10008280704701468888C0F308007047818937
:101D200041F0010181817047028BD2B20283028BA4
:101D300042EA012202837047028B02F47F4202834F
:101D4000028B0A430283704721B1828A42F020024B
:101D5000828204E0828A4FF6DF731A4082827047E3
:101D600021B1828A42F01002828204E0828A4FF618
:101D7000EF731A408282704721B1828A42F00802D2
:101D8000828204E0828A4FF6F7731A40828270479B
:101D900021B1828942F40042828103E08289C2F348
:101DA0000E028281704721B1828A42F400628282EF
:101DB00004E0828A4FF2FF731A4082827047828A5F
:101DC0004FF6FB731A408282828A0A4382827047EE
:101DD00021B1828A42F00202828204E0828A4FF6B6
:101DE000FD731A408282704702460020B1F5007FE1
:101DF00000D100BF13880B400BB1012000E0002090
:101E0000704701F40072B2F5007F00D100BFCA43F1
:101E10000280704770B50246002400230025002090
:101E200040F66A16B14200D100BFC1F3421501F07D
:101E30001F03012606FA03F3012D02D196893340D0
:101E400006E0022D02D1168A334001E0968A334023
:101E50000C12012606FA04F41688344013B10CB1B2
:101E6000012000E0002070BD10B50022002340F6E4
:101E70006A14A14200D100BF0A1201249440A3B207
:101E8000DC43048010BD00000038014000440040E5
:101E900000480040004C00400050004010B56FF07A
:101EA0000400FEF74AFB2E4800682E49B0FBF1F013
:101EB0002D4908700846007800EB4001C1EBC010C6
:101EC0004FF6FF7101EAC0002849088010BD0146A5
:101ED000254A12784A434FF0E0235A6100229A6162
:101EE0001A46126942F001021A6100BF4FF0E02267
:101EF000106900F001021AB100F48032002AF5D016
:101F00004FF0E022126922F001024FF0E0231A6143
:101F100000229A6170470146144A12884A434FF0E2
:101F2000E0235A6100229A611A46126942F00102C6
:101F30001A6100BF4FF0E022106900F001021AB1EF
:101F400000F48032002AF5D04FF0E022126922F02E
:101F500001024FF0E0231A6100229A6170470000ED
:101F60000000002000127A00580000205A000020D3
:101F7000A34A0A400243A34B1A6070470146072355
:101F800023EA010212029F4B1B1D18684FF6FF0344
:101F900018409D4B184310439A4B1B1D1860704707
:101FA0002DE9F0410746884614461D462846FFF7AE
:101FB000E5FFC5F1040007FA00F60F20284100EA0A
:101FC0000800064306F00F06E21704EBD262521136
:101FD000920002F1E022D2F800212146E31704EB3F
:101FE000D3635B11A4EB431C012303FA0CF31A43E4
:101FF0002046E31704EBD3635B119B0003F1E0235E
:10200000C3F800218148005D40EA06107F49085569
:10201000BDE8F08170B504460B46CE1701EB96760D
:10202000C6F38700CE1701EB9676B610A1EB8606B5
:10203000B606350E764B9B6943F00103744EB361CF
:102040004FEAB63353F820300F26AE40B343714EFB
:1020500046F82030334653F8203004FA05F61E4384
:102060006C4B43F820606C4B1B6801268E40334359
:10207000694E336002F0010343B1674B0C331B68B8
:1020800001268E403343644E0C36336002F0020367
:1020900043B1614B08331E6801238B401E435E4BE6
:1020A00008331E6070BD00B5002059490861C86042
:1020B0001420486100208861C8610846006840F02B
:1020C000010008600846406854490840504948608B
:1020D00008460068524908404D49086008460068B3
:1020E00020F4802008600846406820F4FE00486024
:1020F0000020886000214FF00060FFF739FF00BD2D
:1021000010B540480830006840F004003D490831EF
:1021100008603F48C06940F080503D49C86141486F
:10212000406840F480703F4948600846006840F0CD
:10213000040008600846006840F002000860FEF7EE
:1021400053F810BD3048001D2E49091D0860704726
:10215000014649062E4A926942F001022C4B9A61CF
:102160002C4A083A526822F0E0622A4B083B5A6037
:102170001A4652680A435A60704730B50446002533
:10218000FFF791FF2248006840F480302049086042
:1021900000BF1F480068400C0028FAD04FF4806050
:1021A0001B494860A01EC4B20846406840EA84400B
:1021B00048600846406840F4803048601A4800682B
:1021C00040F03200184908601148006840F0807003
:1021D0000F49086000BF0E480068400E0028FAD082
:1021E0000B48406840F002000949486005E0084893
:1021F0004068C0F3870505F00305022DF7D130BD17
:1022000080FFFF1F08ED00E00000FA0500E400E099
:102210000010024008000140000401400000FFF8E7
:10222000FFFFF6FE0070004000200240014600BFA4
:10223000704700BF244A128802F04002002AF9D0F9
:10224000C2B2214B1B1D1A80704710B586B00446E0
:10225000012144F20400FEF7ABFC4FF40070ADF82E
:10226000140003208DF8160018208DF8170005A91A
:102270001648FEF7E1F94FF48060ADF81400042031
:102280008DF8170005A91148FEF7D6F90194002032
:10229000ADF80800ADF80A00ADF80C00ADF810007C
:1022A0000C20ADF80E0001A90748FFF736FC00220C
:1022B00040F225510448FFF7C8FC01210248FFF70E
:1022C000B8FC06B010BD0000003801400008014015
:1022D00008B501210420FEF76BFC4FF48050ADF8E7
:1022E000000010208DF8030003208DF802006946DD
:1022F0000C48FEF7A1F908BD18B900210A4A11607F
:102300000FE00A490968491C084A1160814208D156
:1023100005490968C943064AC2F8B0110021034AB9
:102320001160704700080140B001214260000020A8
:10233000000021425648806940F0040054498861F9
:102340005448006820F07040524908600846006810
:1023500040F0004008604F480830006840F40040FA
:102360004C4908310860704701464B48006828B95D
:102370004A480088401C494A108002E00020474A31
:1023800010804548006828B94548007810B90120F8
:10239000434A107043480078B0B94148007801289A
:1023A00007D141480078401C3F4A107001203D4A47
:1023B00010703D480078022806D100203A4A10707B
:1023C0003A4A10800220704733480068012804D13F
:1023D0000020334A1070334A1070334800780128C7
:1023E0001CD132480088401C304A108010460088BA
:1023F00088420ADD29480088884206DA00202A4AF5
:1024000010702A4A10800120DDE7244800888842A5
:1024100004DD0020244A1070244A10800020D2E7F6
:102420002348007838B11C48006820B900202049B2
:1024300008700120704718480068012801D11C4924
:1024400008700020F6E71B48008840B91248006871
:1024500028B919480088401C1749088002E000206C
:102460001549088014480088C82807DD0120114953
:102470000880002010490880012070470D4800881E
:10248000012802D100200B4908800020F5E7000058
:1024900000100240040801403C0121426A00002073
:1024A0006400002065000020660000206800002015
:1024B0006C000020700000206E0000202F48806912
:1024C00040F008002D4988612D48006880B22C49F1
:1024D0000860084600682B4908432949086070478E
:1024E00000B503460A46FFF7E9FF2448C06940F0FB
:1024F00004002249C8610846806940F008008861EC
:102500001F48001D006820F0FF001D49091D0860DC
:102510000846006840F0BB0008601B480380001FAD
:10252000028019481038008840F4C040164910391C
:1025300008800846008840F060000880084600884F
:1025400040F4006008800846008840F008000880D9
:10255000081D008840F48050091D08800846008846
:1025600040F480700880C81307492C390880084659
:10257000008840F00100088000BD0000001002400B
:10258000000C0140000022222C08004000B587B05A
:1025900001210846FEF719FB01210420FEF708FB84
:1025A0000320ADF8000004208DF80300694661485F
:1025B000FEF742F804A8FEF75FFF0020ADF8100018
:1025C0004FF6FF70ADF814000020ADF81600ADF81E
:1025D000120004A94FF08040FEF722FC00231A46A7
:1025E00003214FF08040FFF72AF801A8FEF757FFBC
:1025F0000A20ADF80C0001A94007FEF7A4FE012156
:102600008807FFF72FFA012211469007FEF77FFF98
:1026100000214FF08040FFF7F3F901218807FEF712
:102620005BFF07B000BD00B587B001210220FEF7B7
:10263000CCFA01210420FEF7BBFAC020ADF800005F
:1026400004208DF8030069463A48FDF7F5FF04A819
:10265000FEF712FF0020ADF810004FF6FF70ADF846
:1026600014000020ADF81600ADF8120004A932489D
:10267000FEF7D6FB00231A4603212F48FEF7DFFFA3
:1026800001A8FEF70CFF0A20ADF80C0001A92A48AA
:10269000FEF759FE01212848FFF7E4F9012211460F
:1026A0002548FEF734FF00212348FFF7A9F901214F
:1026B0002148FEF711FF07B000BD0146022904D0F2
:1026C00003290BD0042919D111E04FF08042928CDC
:1026D00010B200224FF080439A8411E0164A24324F
:1026E000128810B20022144B24331A8008E0134AD7
:1026F000128810B20022114B1A8001E0002000BFA6
:1027000000BF70470C48103000880B48103000881C
:1027100020F0010008491031088070474FF08040D8
:10272000008A4FF08040008A20F001004FF0804185
:10273000088270470008014000040040240800405F
:10274000F748806940F00800F5498861F54800685D
:1027500020F47F40F34908600846006840F40850C0
:102760000860704710B5EF48006820F47040ED49EC
:1027700008600846006840F4405008600120EA49BB
:102780000860EA48D0F82C0108B9002010BD0120EB
:10279000E549091F0860FFF79AFB0020E349C1F8EB
:1027A000AC01E1488038006808B10020EEE7012064
:1027B000FFF78DFB0020DC49091F08600120E5E7D9
:1027C00010B5D848006820F47040D6490860084623
:1027D000006840F4405008600020D349091F086099
:1027E000D249C1F8AC010120FFF771FB0120CE49AD
:1027F000091F0860CD49C1F8AC01FFF768FB10BDA7
:1028000010B50024C748006820F47040C54908602E
:102810000846006840F4004008600120C249086092
:10282000FFF755FB0120C149C1F8A801FFF74FFB95
:102830000AE0601CC4B2322C03DDFFF7C1FF0020A8
:1028400010BD0120FFF743FBB7488038006800281F
:10285000EFD1B549091F08600120F1E710B500204C
:10286000B149091F0860AF48006820F47040AD49C5
:1028700008600846006840F4405008600020AB49FA
:10288000C1F8AC010120FFF722FB0120A649091F76
:102890000860FFF71CFB0020A449C1F8A80110BD87
:1028A00010B50020A049091F08609E48006820F468
:1028B00070409C4908600846006840F44050086039
:1028C00001209A49C1F8AC01FFF701FB01209649AC
:1028D000091F0860FFF7FBFA00209449C1F8A8011E
:1028E00010BD70B504468F48006820F470408D49D3
:1028F00008600846006840F44050086000208A499B
:10290000091F0860002516E0E00987490860600695
:10291000040E0120FFF7DBFA01208449C1F8A80169
:10292000FFF7D5FA00208049091F08600120FFF752
:10293000CEFA681CC5B2082DE6DB70BD2DE9F0416A
:1029400005460E4617469846FFF70CFF10B90120C2
:10295000BDE8F0816906080EFFF7C3FFFFF750FFDF
:1029600018B9FFF72DFF0120F2E73046FFF7B9FF56
:10297000FFF746FF00240BE018F80400FFF7B1FF53
:10298000FFF73EFF18B9FFF71BFF0020E0E7641CCC
:10299000BC42F1DBFFF714FF0020D9E770B5054614
:1029A00000246048006820F470405E4908600846D2
:1029B000006840F400400860002617E000205A49F3
:1029C000091F08600220FFF782FA01205749C1F869
:1029D000A8016006040E54488038006808B1601CE5
:1029E000C4B20220FFF773FA701CC6B2082EE5DBF2
:1029F00015B1FFF733FF01E0FFF752FF204670BD2E
:102A00002DE9F04106460F4614461D46FFF7AAFE83
:102A100010B90120BDE8F0817106080EFFF761FFD3
:102A2000FFF7EEFE18B9FFF7CBFE0120F2E73846BC
:102A3000FFF757FFFFF7E4FEFFF794FE012101EBDC
:102A40004601C8B2FFF74DFFFFF7DAFE0DE0012C9B
:102A500004D10020FFF7A2FF287003E00120FFF758
:102A60009DFF28706D1C601EC4B2002CEFD1FFF7D3
:102A7000A7FE0020CEE770B505460E460024FFF7FE
:102A800071FE2846FFF72DFF641CFFF7B9FE3046A4
:102A9000FFF727FF641CFFF7B3FEFFF763FE691C17
:102AA000C8B2FFF71EFF641CFFF7AAFE0020FFF765
:102AB00075FF0446FFF784FE204670BD2DE9F04106
:102AC0000746884615461E460024FFF74BFE38464B
:102AD000FFF707FFFFF794FE4046FFF702FFFFF7FF
:102AE0008FFEFFF73FFE791CC8B2FFF7FAFEFFF733
:102AF00087FE00BF0DE0681EA04204D00120FFF752
:102B00004DFF305503E00020FFF748FF3055601CB3
:102B1000C4B2AC42EFDBFFF753FE2046BDE8F081C4
:102B200000100240040C0140AC812142008021428F
:102B30002DE9F04180460D4616461F460024FFF75A
:102B400011FE4046FFF7CDFEFFF75AFE2846FFF77D
:102B5000C8FEFFF755FE00BF06E0385DFFF7C1FE77
:102B6000FFF74EFE601CC4B2B442F6DBFFF728FE4E
:102B70000120BDE8F08170B505460E461446314689
:102B80002846FFF778FF2070012070BD37B5044656
:102B90000D4602AB012229462046FFF7C9FF3EBD84
:102BA0002DE9F8430746884614461D46089E6A46A6
:102BB00041463846FFF7DFFF28B3601CFF2101FACA
:102BC00000F0C4F108012944491EFF220A411043C4
:102BD00000F0FF09C5F1080006FA00F0C6B2C4F122
:102BE000070006419DF8000000EA090000909DF8EA
:102BF0000000304300909DF8002041463846FFF722
:102C0000C5FFBDE8F8830020FBE7F8B506460F4690
:102C100014461D466A4639463046FFF7ACFF2DB1D3
:102C20000120A0409DF80010084305E00120A040CD
:102C30009DF8001021EA0000C0B200909DF800202D
:102C400039463046FFF7A2FFF8BD000010B5124824
:102C5000806940F00800104988611048006820F43D
:102C600070400E4908600846006840F40040086063
:102C70000A480C30006840F0080008490C31086030
:102C8000012203211046FFF7C5F902230922012181
:102C90001846FFF785F910BD00100240000C0140F6
:102CA00010B586B0044601210420FDF781FF012103
:102CB0004804FDF78AFF0420ADF8140003208DF8C6
:102CC000160018208DF8170005A94D48FDF7B4FC33
:102CD0000820ADF8140004208DF8170005A9484815
:102CE000FDF7AAFC26208DF8000003208DF80100D6
:102CF0008DF8020001208DF803006846FDF7D3FB34
:102D000001940020ADF80800ADF80A00ADF80C0001
:102D1000ADF810000C20ADF80E0001A93948FEF7FF
:102D2000FCFE012240F225513648FEF78EFF0121BC
:102D30003448FEF77EFF06B010BD10B540F22551B5
:102D40003048FFF767F8002858D02F48FEF7E2FF19
:102D50002E490860084600782D4908702DA004F01F
:102D600045F92B4800782C490978884212D1284827
:102D700040782949497888420CD1254880782649ED
:102D80008978884206D100202449087020490870BB
:102D9000487088701E48007821490978884213D10C
:102DA0001B4840781E49497888420DD118488078E0
:102DB0001B498978884207D10120184908700020F2
:102DC000134908704870887010480068592802D16B
:102DD0000220144908700D480068582802D10120CB
:102DE000104908700A4840780949887008460078F8
:102DF000487040F225510348FFF736F810BD000037
:102E000000080140004400400048004084000020C9
:102E100075000020496E0000800000201A0000208C
:102E20007D000020190000200146002901DA4842F7
:102E300000E00846704700B503460A46002B07DA53
:102E40000120FE4908600020FD49C1F8900106E01C
:102E50000020FA4908600120F949C1F8900118469C
:102E6000FFF7E2FFF7490880002A08DA0020F3495B
:102E7000091D08600120F249C1F89C0107E001200A
:102E8000EE49091D08600020ED49C1F89C0110467B
:102E9000FFF7CAFFEB49091D088000BD70B5054664
:102EA000E949284606F028FD08D3E849284606F0F7
:102EB00023FE03D3E648007801280ED10124002028
:102EC000DE49091F0860DE49C1F89401DB49091D8C
:102ED0000860DB49C1F89C0100E00024204670BD79
:102EE0002DE9F04180460C461546D948007810B9C6
:102EF0000020BDE8F081D7480088B0B9404606F010
:102F000003FB06460022D44B06F0ECF80DD24046F7
:102F100006F0FAFA06460022D04B05F0A9FF04D2CB
:102F20001CB915B90120CB490880CA48008801287E
:102F300019D1CB480088401C80B2C949088032288A
:102F400003DD00200880C3490880032C0BDD032D1E
:102F500009DD3C2C07DA3C2D05DA0020BD4908804C
:102F600008800120C5E70020C3E72DE9F04781462E
:102F70000E4614461D46BB480088E0B92046FFF7C0
:102F800053FF02462846FFF74FFF10441E2805DA7C
:102F9000B5480088401CB449088002E00020B249CE
:102FA0000880B14800880A2805DD0120AD49088065
:102FB0000020AD490880AB480088012825D1AB48E6
:102FC0000088401C80B2A9490880C82803DD002081
:102FD0000880A4490880A649484606F08DFD14D211
:102FE000304606F091FA07460022A24B06F07AF826
:102FF0000BD2304606F088FA074600229E4B05F0B9
:1030000037FF02D20220974908809648008802289C
:1030100016D19A480088401C80B2984908806428DC
:1030200003DD002008808F4908806019FFF7FCFE4F
:10303000872805DD00208B4908800120BDE8F08746
:103040000020FBE741F6F4208D4909684242914295
:1030500002DA41428A4A116089490968814201DDE8
:1030600087490860874909684242914202DA414231
:10307000844A116083490968814201DD8149086001
:1030800070472DE9FC5F81460C46DFF8FCB17F48B4
:103090000190484606F038FA074600227C4B06F0BD
:1030A00049F9054605F09EFC82462046019906F046
:1030B00057FC06465146584606F052FC0746314634
:1030C00006F04EFA054606F0AFFB00900098BDE80A
:1030D000FC9F10B53220FFF747F90446012C07D1B9
:1030E0005B48007808B9012000E0002058490870CA
:1030F00010BD2DE9F04F89B08146B9F1010F7DD0A7
:103100004621D020FFF7B7FC80464521D020FFF7AD
:10311000B2FC08EB0027384606F0C2FB0446482103
:10312000D020FFF7A8FC80464721D020FFF7A3FC62
:1031300008EB0027384606F0B3FB06463C21D020BA
:10314000FFF799FC80463B21D020FFF794FC08EB69
:103150000027384606F0A4FB83464021D020FFF725
:103160008AFC80463F21D020FFF785FC08EB002732
:10317000384606F095FB05464FF08E41204606F096
:10318000BBFC05D24FF08F41204606F0F1FC04460F
:103190004FF08E41304606F0AFFC05D24FF08F4124
:1031A000304606F0E5FC06464FF08E41584606F0E4
:1031B000A3FC05D24FF08F41584606F0D9FC834658
:1031C0004FF08E41284606F097FC05D24FF08F4114
:1031D000284606F0CDFC054684F000402D490860E5
:1031E000284606F091F9CDE90001584606F08CF921
:1031F0000746DDE9002305F0F9FA00E072E000225D
:10320000254BCDE9020105F06FFE244A244BCDE9A0
:10321000040105F0D5FCCDE9060105F0E3FB82468B
:10322000204606F071F94FF066321E4BCDE90601DB
:1032300005F0C6FC074605F0D5FB35E09481214238
:10324000008021423C080040000020C200002042D3
:103250001A000020CC00002000001AC000002B4003
:10326000CE000020C4000020C6000020C8000020BE
:103270000020CB46008030C000803740CA000020CC
:103280002400002028000020008022449A99993FC1
:1032900000000C403000002000806640F1D4C8538C
:1032A000FB210940666630400446FA48007802284F
:1032B00006D184F000473946504600F0EDFE09E0A3
:1032C000F4480078032805D184F000473946504679
:1032D00000F0F9FFF0480068F0490860F048066027
:1032E000F048056009B0BDE8F08F7CB5EE48006895
:1032F00000287CD10820ED490860ED48007808B925
:10330000012000E00020EA490870EA48007801281E
:103310000BD1E9480078401CC0B2E74908700A2880
:1033200003D100200870E3490870E14800780128C3
:1033300005D1D8480078FFF7DCFE00207CBD0220D4
:10334000FFF7BBF94042DD4908600320FFF7B5F9FC
:10335000DB490860CF480078FFF7CBFEFFF7B9FEE6
:10336000D8480168CD480068FFF78BFED649086051
:103370000020D6490860D6490860D3480068D34980
:103380000968401AD24909680844D2490860CE4801
:103390000068CE490968401ACD490968401ACE49EB
:1033A0000860FFF74FFEC6480368C4480268BB4880
:1033B0000168BC480068FFF7D8FD10B10120C7497B
:1033C0000870BF480268BD480168B4480068FFF74C
:1033D00087FD10B10020C1490870B0480068FFF7B0
:1033E0005DFD38B9BC480168BA48006800E011E0EA
:1033F000FFF721FDA948006806F086F804460B4651
:10340000B5480068B34909682246CDE90010B4A068
:1034100003F0ECFD002091E72DE9FC5FB848019036
:10342000B8480090B848B9490860B9480078012800
:103430000CD1B848007806F04BFA04462146B34850
:10344000006806F0FBF8B449086019E0B34800785A
:10345000012812D1AF48007806F03AFA0546AB4889
:10346000006880F000442946204606F0E7F8AA49A3
:103470000860ABA003F0BAFD02E00020A649086096
:103480008E4909688E4A12681144084606F008FA07
:10349000A4490860A448006806F036F80646A34A26
:1034A000A34B05F021FD044605F09CFA9E490860F7
:1034B0009C48006806F028F880469C4A9D4B05F021
:1034C00013FD04460D469848006806F01DF80646B0
:1034D00022462B4605F0B8FA824605F083FA924957
:1034E0000860084601689448006806F039F8924977
:1034F0000860894801689048006806F039FB8E49E9
:1035000008608E498C48006806F0F6FA02D28B48B3
:10351000894908608A498848006806F0EDF902D2B6
:1035200087488549086084480099006806F018FAC1
:1035300004467D480199006806F012FA05462146C6
:1035400006F00EF87F49086054480068FFF7A6FCB3
:10355000012803D061480078012802D10020764973
:1035600008607848006806F05FF9BDE8FC9F2DE927
:10357000F84F05460E46914666480078582191FB63
:10358000F0F7384606F08CF90446DFF8BCA14FF09E
:10359000000B6E480078012803D06D4800780128A0
:1035A00034D14FF07E516B48006805F0D9FF69496E
:1035B000074608604FF07E5106F002F907D1A819BE
:1035C000FFF732FC074606F06BF963490860624872
:1035D0000168624806F032F86149086008460068F0
:1035E00005F092FF07464FF033325E4B05F040FC8A
:1035F00002D25D485A4908605C495948006806F0A3
:103600007BFA0BD259485649086007E0584854499C
:10361000086000204F4908604F4908604B48007817
:10362000012808D14E4801685248006806F0A0FA07
:10363000504908600FE046480078012808D1484802
:1036400001684C48006805F08BFF4A49086002E0B9
:1036500000204849086021464648006806F04CFAB8
:1036600001D24448046084F000474248016838466B
:1036700006F042FA03D284F000403E490860244834
:103680000078012803D025480078012875D14FF033
:103690007C5B74E014000020100100202C0000204E
:1036A00034000020400000200C812142140401401D
:1036B000940000203D0000203C0000201C00002061
:1036C0002000002030000020880000208C00002016
:1036D0009000002024000020280000201A00002074
:1036E000416E676C653A2566204D6F746F72313A92
:1036F0002564204D6F746F72322025640D0A00001E
:103700000000A042CDCCCC3E0000B442AC00002072
:103710001500002019000020A40000201600002041
:10372000212121009C000020A00000209A99999955
:103730009999E93F9999C93FA800002000401C468B
:1037400000401CC6980000200000284217000020FE
:1037500018000020C0000020B800002000004842EF
:10376000BC0000203333E33F9A99193F00004040EA
:103770006666663FB0000020FFE74FF0000B594639
:10378000484606F0EDF800900948006880F00048CF
:103790005146404606F0E4F80746009906F0E8F97D
:1037A000044908600846006806F03EF8BDE8F88F56
:1037B000B0000020B4000020014691F90020002A4A
:1037C00001DD00201EE091F90020002A01DA04202A
:1037D00018E091F90120002A01DD012012E091F9A1
:1037E0000120002A01DA05200CE091F90220002ACC
:1037F00001DD022006E091F90220002A01DA06200C
:1038000000E00720704770B505462846FFF7D4FF53
:103810000446E81CFFF7D0FF44EAC00084B2A81DAC
:10382000FFF7CAFF44EA801084B2204670BD70B52D
:1038300088B002A905A802F086FA0446072C3FD1F9
:1038400001A801F0F5FC059806F02AF80646019952
:1038500006F086F8054605F0E7FF0590069806F0A5
:103860001FF80646019906F07BF8054605F0DCFFD7
:103870000690079806F014F80646019906F070F8CD
:10388000054605F0D1FF079005A802F06CFD6846DB
:1038900001F0EBFCBDF80010029848430290BDF81F
:1038A0000010039848430390BDF800100498484363
:1038B000049002A802F0EAFDFEA003F097FB00BF0F
:1038C00008B070BD2DE9F04304460D46DDE90767F9
:1038D0000021012041E0DFF800C43CF81080A0F195
:1038E000010CDFF8F49329F81C8009F1160C3CF860
:1038F0001090A0F1010CDFF8E08308F1160828F819
:103900001C9008F1160C3CF81090A0F1010C08F185
:10391000160828F81C9008F1160C3CF81090A0F13D
:10392000010C08F1160828F81C9008F1160C3CF858
:103930001090A0F1010C08F1160828F81C9008F16D
:10394000160C3CF81090A0F1010C08F1160828F8AC
:103950001C9000F1010C0CF0FF000A28BBDBDFF823
:1039600078C3ACF81240ACF82850ACF83E20ACF864
:103970005430ACF86A60ACF880700021002008E098
:10398000DFF854C33CF910C0614400F1010C0CF0A5
:10399000FF000A28F4DB4FF00A0C91FBFCFC0FFA45
:1039A0008CFCDFF83483A8F814C0002100200AE062
:1039B000DFF824C30CF1160C3CF910C0614400F18F
:1039C000010C0CF0FF000A28F2DB4FF00A0C91FB0F
:1039D000FCFC0FFA8CF8DFF800C3ACF82A80002159
:1039E00000200AE0DFF8F0C20CF12C0C3CF910C00A
:1039F000614400F1010C0CF0FF000A28F2DB4FF0EB
:103A00000A0C91FBFCFC0FFA8CF8DFF8CCC2ACF886
:103A10004080002100200AE0DFF8BCC20CF1420C1B
:103A20003CF910C0614400F1010C0CF0FF000A28C1
:103A3000F2DB4FF00A0C91FBFCFC0FFA8CF8DFF87C
:103A400098C2ACF85680002100200AE0DFF888C256
:103A50000CF1580C3CF910C0614400F1010C0CF061
:103A6000FF000A28F2DB4FF00A0C91FBFCFC0FFA76
:103A70008CF8DFF864C2ACF86C80002100200AE00A
:103A8000DFF854C20CF16E0C3CF910C0614400F137
:103A9000010C0CF0FF000A28F2DB4FF00A0C91FB3E
:103AA000FCFC0FFA8CF8DFF830C2ACF88280BDE87D
:103AB000F08338B50446032302226B21D020009402
:103AC000FFF76EF838BD38B50446022304221B21E7
:103AD000D0200094FFF764F838BD38B504460223BF
:103AE00004221C21D0200094FFF75AF838BD10B5ED
:103AF0000446234606226B21D020FFF786F810BD2E
:103B000010B5764B01227521D020FEF7D7FF734800
:103B1000007810BD10B5FFF7F3FF682801D1012030
:103B200010BD0020FCE710B50446234605226A219B
:103B3000D020FFF76AF810BD10B5044623460122D5
:103B40003721D020FFF761F810BD10B50220FFF734
:103B5000B0FF0320FFF7B7FF0020FFF7BEFF0020F4
:103B6000FFF7C5FF0020FFF7DEFF0020FFF7E4FFAF
:103B700010BD38B5002000906B46012275216820E9
:103B8000FEF73EFF56A003F031FA9DF800006828CA
:103B90000ED000BF5B48006800F4E0605A4908435B
:103BA000001D58490860BFF3408F00BF00BFFEE70B
:103BB00001F04BF800283CD1782000F0AEFC10B9A1
:103BC00047A003F013FA782000F08EFE10B94FA042
:103BD00003F00CFAC82000F068FF10B955A003F0FC
:103BE00005FA02F025FB10B95CA003F0FFF9684864
:103BF000FFF709FE044602F025FB10B965A003F0AB
:103C0000F5F940F2731002F05EFF10B96BA003F0FB
:103C1000EDF9C82002F0D0FC10B972A003F0E6F96B
:103C2000FFF705FE012002F049F810B976A003F075
:103C3000DDF938BD2DE9F04F8FB00CA87B490DABF5
:103C400008AACDE900107A497A4803F09BF8774832
:103C5000008800F4807000282AD0089805F020FE23
:103C600004464FF09D4105F0E9FC7349086009984E
:103C700005F016FE04464FF09D4105F0DFFC6F494C
:103C800008600A9805F00CFE04464FF09D4105F0CF
:103C9000D5FC6B4908600B9805F002FE04464FF016
:103CA0009D4105F0CBFC6749086063480168CBE0A3
:103CB000A0E1000073657474696E672062696173C6
:103CC0002073756363657366756C6C79202E2E2E78
:103CD0002E2E2E0D0A0000009A0100208C010020DB
:103CE0006D70755F7365745F73656E736F7220635B
:103CF0006F6D706C657465202E2E2E2E2E2E0D0A83
:103D0000000000000CED00E00000FA056D70755F2A
:103D1000636F6E6669677572655F6669666F20635B
:103D20006F6D706C657465202E2E2E2E2E2E0D0A52
:103D3000000000006D70755F7365745F73616D7076
:103D40006C655F7261746520636F6D706C6574651E
:103D5000202E2E2E2E2E2E0D0A000000646D705F78
:103D60006C6F61645F6D6F74696F6E5F64726976AA
:103D700065725F6669726D7761726520636F6D70E1
:103D80006C657465202E2E2E2E2E2E0D0A0000003E
:103D9000FC000020646D705F7365745F6F7269650D
:103DA0006E746174696F6E20636F6D706C6574659D
:103DB000202E2E2E2E2E2E0D0A000000646D705F18
:103DC000656E61626C655F666561747572652063BE
:103DD0006F6D706C657465202E2E2E2E2E2E0D0AA2
:103DE00000000000646D705F7365745F6669666FE4
:103DF0005F7261746520636F6D706C657465202EF1
:103E00002E2E2E2E2E0D0A006D70755F7365745F59
:103E1000646D705F737461746520636F6D706C6541
:103E20007465202E2E2E2E2E2E0D0A00DC00002072
:103E3000D6000020D0000020EC000020F000002080
:103E4000F4000020F80000204FF0804005F088FDCD
:103E5000069085480168069805F082FD82468348F1
:103E600001684FF0404005F07BFD069080480168F6
:103E7000069805F075FD8346514605F071FB0790E5
:103E800005F042FB804604F069FA06464FF06632C0
:103E9000784B05F029F8044604F0A4FD7649086043
:103EA000714801684FF0804005F05AFD03906E485C
:103EB0000168039805F054FD82466C4801684FF094
:103EC000404005F04DFD039068480168039805F0F7
:103ED00047FD8346514605F04BFE81464FF07E512B
:103EE00005F03EFB044605F00FFBCDE904016348F5
:103EF00001684FF0804005F033FD83465B48016860
:103F0000584605F02DFD8146574801684FF0804026
:103F100005F026FD834656480168584605F020FD09
:103F20008246494605F01CFB044605F0EDFA0746BB
:103F3000DDE9042304F05AFC4FF066324D4BCDE925
:103F4000060104F0D1FF054604F04CFD4C49086021
:103F500047480168006805F003FD03904248016886
:103F6000006805F0FDFC029040480168006805F01B
:103F7000F7FC834641480168006805F0F1FC5946AA
:103F8000019005F0EDFA8246029905F0F1FD8146B7
:103F9000039905F0EDFD044605F0B6FACDE90401FC
:103FA000334801683548006805F0DAFC82462E483F
:103FB00001682E48006805F0D3FC8346514605F0A1
:103FC000CFFA81464FF0804105F0CAFC044605F067
:103FD0009BFA0746DDE9042304F008FC4FF0663243
:103FE000244BCDE9060104F07FFF054604F0FAFCFE
:103FF000244908600FB0BDE8F08F2DE9F05F422141
:10400000D020FEF738FD05464121D020FEF733FDD4
:1040100005EB0024204605F043FC82464FF08E411C
:10402000504605F069FD05D24FF08F41504605F02E
:104030009FFD82461449504605F000FB834605F07B
:1040400063FA8046114A124B04F0FEFC0646002239
:10405000104B04F049FF044604F0C4FC824650466D
:1040600005F0E2FBBDE8F09FF4000020F000002026
:10407000F800002066A64C40E0000020EC00002084
:10408000E4000020E80000200000AA43A4703D0ADC
:10409000D7434240000024402DE9F04105460C463C
:1040A000AA480168204605F063FD0746A848016854
:1040B000384605F055FC0646A6480168304605F02E
:1040C0004FFAA4490860A4484168A448006805F074
:1040D0004FFD0646A0488168304605F049FDA049DD
:1040E00008609D48C06880F0004048609A48C068F9
:1040F00080F0004088609B480068C8600868944968
:10410000096805F02DFC064693480168304605F025
:1041100027FA91490860924948688D49096805F075
:104120001FFC06468C484168304605F019FA8A495A
:1041300048608B4988688649096805F011FC064685
:1041400085488168304605F00BFA834988608449C8
:10415000C8687F49096805F003FC06467E48C168C7
:10416000304605F0FDF97C49C8607A480168284668
:1041700005F0FEFC7C4908607C48007805F0A8FB4F
:10418000064675480168304605F0EAFB7849086044
:104190007648007805F09CFB06466F4881683046FB
:1041A00005F0DEFB734908607048007805F090FB6D
:1041B00007466F480168384605F0D2FB06466E4850
:1041C0000168304605F0CCF96C4908600846016882
:1041D0006748006805F032FA694908606748016875
:1041E0006448006805F02AFA66490860604800687B
:1041F000654908605D48007805F06AFB0646564848
:104200004168304605F0ACFB604908605E480168D3
:104210005B48006805F0A4FB06464F48016830463D
:1042200005F09BFC4C4908605848016854480068F8
:1042300005F096FB064648484168304605F08DFC7F
:1042400045494860504801684E48006805F088FBC1
:10425000064641488168304605F07FFC3E4988604B
:104260004A4801684748006805F07AFB06463A4824
:10427000C168304605F071FC3749C8603A480168AA
:104280003F48006805F06CFB06463248016830463E
:1042900005F066F92F49086033480168394800681D
:1042A00005F05EFB064629480168304605F058F9DE
:1042B0002649086008460168204605F059FC344943
:1042C0000860BDE8F0812DE9F04F8BB083468A4647
:1042D000504605F019F980462E4A2F4B04F004FE93
:1042E000CDE902011B48006805F00EF9CDE9000197
:1042F000DDE9022304F0A8FB04460D4627480168C7
:104300004FF07E5005F034FC804605F0FDF806467F
:1043100022462B4604F0E8FDCDE906011F4801685E
:10432000584605F01DFB044605F0EEF8CDE9040102
:10433000DDE9062304F088FBCDE9080104F052FB17
:10434000044908600BB0BDE8F08F00002C0100208C
:10435000240100201001002050010020180100203D
:10436000200200201C010020300100202801002034
:104370003401002038010020200100203C010020F1
:104380004001002044010020480100204C01002091
:10439000140100207B14AE47E17A743F0C01002029
:1043A00038B50446FB4890F82400C0B114B102208F
:1043B000009001E000200090F64A1268D17BF54A97
:1043C000526810786B460122FEF7B8FA10B14FF030
:1043D000FF3038BD9DF80010EE48417423E0ED48F1
:1043E000807A10B94FF0FF30F3E724B1E948407C00
:1043F00008B10020EDE714B10120009001E0002099
:104400000090E44A1268D17BE24A526810786B4609
:104410000122FEF793FA10B14FF0FF30D9E79DF873
:104420000010DC4841740020D3E738B5002419E0BF
:10443000D8480068C07AA04204D0D6480068407DC1
:10444000A04200D10CE0D349496808786B460122AC
:104450002146FEF7D5FA10B14FF0FF3038BD00BF4E
:10446000601CC4B2CB4840680079A042E0DC002068
:10447000F4E770B504460D46C6480068C07AA0420D
:1044800004D0C4480068407DA04202D14FF0FF3004
:1044900070BDC04840680079A04202DC4FF0FF3098
:1044A000F6E7BC49496808782B4601222146FEF709
:1044B000A7FAEDE738B50446B64890F82300A042C5
:1044C00001D1002038BD14B13020009001E000205F
:1044D0000090B048807C20B19DF8000040F00200C0
:1044E0000090AC4890F8220020B19DF8000040F008
:1044F00080000090A74A1268117DA64A5268107881
:104500006B460122FEF71AFA10B14FF0FF30D9E7DF
:10451000A04880F823400020D4E738B5044604F0D2
:10452000700010B10120009005E014B1002000904F
:1045300001E040200090974A1268917C954A5268A9
:1045400010786B460122FEF7F9F920B1002191485D
:104550008172481E38BD9DF8000020F040018D4852
:1045600001730020009004F0400020B99DF8000085
:1045700040F00400009004F0200020B99DF80000F5
:1045800040F00200009004F0100020B99DF80000F7
:1045900040F00100009004F0080020B99DF80000F0
:1045A00040F0380000907B4A1268D17C794A52680A
:1045B00010786B460122FEF7C1F920B10021754841
:1045C0008172481EC6E724B1082C02D00020FFF7F4
:1045D00071FF70488472002101753220FDF79BFC49
:1045E0000020B7E738B504466A48807CA04201D174
:1045F000002038BD002C46D0664A12681179654A01
:10460000526810786B460122FEF7FAF910B14FF0AC
:10461000FF30EEE79DF8000020F0200000905D4A9A
:10462000126811795B4A526810786B460122FEF7D6
:1046300085F910B14FF0FF30DBE70320FDF76BFC8D
:1046400002200090534890F8220020B19DF800000D
:1046500040F0800000904F4890F8230020B19DF872
:10466000000040F0300000904A4A1268117D494A2B
:10467000526810786B460122FEF760F9002851D08D
:104680004FF0FF30B5E7434A12681179414A52684A
:1046900010786B460122FEF7B3F910B14FF0FF30EE
:1046A000A7E73C48807A00F0010028B19DF800009F
:1046B00040F02000009004E09DF8000020F0200071
:1046C0000090344A12681179324A526810786B4669
:1046D0000122FEF733F910B14FF0FF3089E70320D4
:1046E000FDF719FC2B4890F8220010B180200090B3
:1046F00001E000200090274890F8230020B19DF8A9
:10470000000040F030000090224A1268117D214ADA
:10471000526810786B460122FEF710F910B14FF085
:10472000FF3066E71B488474002062E708B519482B
:10473000807A10B94FF0FF3008BD00200090154A74
:104740001268D17B134A526810786B460122FEF73B
:10475000F5F810B14FF0FF30EEE70E4A12685179CC
:104760000C4A526810786B460122FEF7E7F810B148
:104770004FF0FF30E0E7074A12681179054A5268A6
:1047800010786B460122FEF7D9F828B14FF0FF30C0
:10479000D2E7000060010020F74890F824000028CC
:1047A00050D00C200090F44A12681179F24A5268F5
:1047B00010786B460122FEF7C1F810B14FF0FF30C0
:1047C000BAE7C0200090EC48807A00F0010020B1E8
:1047D0009DF8000040F020000090E74A126811792F
:1047E000E54A526810786B460122FEF7A7F810B12F
:1047F0004FF0FF30A0E7E048407C10B1022000906D
:1048000001E000200090DC4A1268D17BDA4A52684D
:1048100010786B460122FEF791F810B14FF0FF308F
:104820008AE700200090D44A12685179D24A52682F
:1048300010786B460122FEF781F8002852D04FF025
:10484000FF3079E704200090CB4A12681179CA4AF8
:10485000526810786B460122FEF770F810B14FF0E5
:10486000FF3069E7C448807C20B9C348807A00F0F3
:10487000010010B94020009001E060200090BE4A85
:1048800012681179BC4A526810786B460122FEF713
:1048900055F810B14FF0FF304EE7B748407C10B1EB
:1048A0000120009001E000200090B34A1268D17B03
:1048B000B14A526810786B460122FEF73FF810B1FA
:1048C0004FF0FF3038E7AC4A12685179AA4A526873
:1048D0001078A94B10330122FEF730F810B14FF0D9
:1048E000FF3029E7002027E770B50446002624F0B2
:1048F0000104A14890F8240008B1002070BD9E4832
:10490000807A10B94FF0FF30F8E79B48057C807A39
:104910002040994908740846007CA04202D04FF01C
:10492000FF3600E0002614B99348007D18B101203D
:10493000FFF736FD02E00020FFF732FD3CB1FFF744
:10494000F5FE20B18C4805744FF0FF30D6E73046B5
:10495000D4E738B504468848807A10B94FF0FF3064
:1049600038BDBC2C02DB0120009015E0622C02DB7C
:104970000220009010E02A2C02DB032000900BE0C4
:10498000142C02DB0420009006E00A2C02DB052038
:10499000009001E0062000907748C07A9DF8001052
:1049A000884201D10020DBE7734A12689178724A8D
:1049B000526810786B460122FDF7C0FF10B14FF02E
:1049C000FF30CDE79DF800106B48C1720020C7E7AB
:1049D00038B50446282C02DD4FF0FF3038BDDCB975
:1049E0000020FFF767FD00208DF8000007208DF8FC
:1049F0000100614A1268917C5F4A526810786B46E8
:104A00000222FDF79BFF10B14FF0FF30E6E70021D7
:104A1000594801750020E1E70120FFF74BFD2020F8
:104A20008DF80000012C06D100208DF80100052032
:104A3000FFF78FFF17E0052C06DC01208DF8010041
:104A40000520FFF786FF0EE0142C06DC02208DF80F
:104A500001000A20FFF77DFF05E003208DF801002B
:104A60001420FFF776FF9DF80100072101EB80106D
:104A7000C0B28DF80100404A1268917C3E4A5268EB
:104A800010786B460222FDF759FF10B14FF0FF304E
:104A9000A4E70821384881720021017301210175C2
:104AA0000020FFF721FF002098E738B50446324880
:104AB000807A10B94FF0FF3038BD2F4890F82400AD
:104AC00010B14FF0FF30F7E72B48007D50B134B103
:104AD000282C04DCE0B2FFF77BFF0020ECE700208D
:104AE000FFF776FF042C01DA042404E0B4F57A7FA2
:104AF00001DD4FF47A744FF47A7090FBF4F0401EAD
:104B0000C0B200901C4A126851781B4A5268107853
:104B10006B460122FDF712FF10B14FF0FF30CBE7DB
:104B20009DF80000401C4FF47A7191FBF0F081B2C7
:104B30001148C1810146C9894810FFF70AFF0020CA
:104B4000BAE738B504460C48807A10B94FF0FF3008
:104B500038BD022C06D0042C07D0082C08D0102C0D
:104B60000FD10BE0002000900EE0082000900BE039
:104B70001020009008E00000600100201820009044
:104B800002E04FF0FF30E3E700BFF948407A9DF8BC
:104B90000010B0EBE10F01D10020D9E7F44A126810
:104BA000D179F34A526810786B460122FDF7C6FEB0
:104BB00010B14FF0FF30CBE79DF80000C110EC487A
:104BC00041720020C4E738B50446E948807A10B93C
:104BD0004FF0FF3038BDFA2C09D0B4F5FA7F09D078
:104BE000B4F57A7F09D0B4F5FA6F0CD108E0002053
:104BF00000900BE00820009008E01020009005E0F5
:104C00001820009002E04FF0FF30E3E700BFD848E3
:104C1000007A9DF80010B0EBE10F01D10020D9E738
:104C2000D34A12689179D24A526810786B460122B1
:104C3000FDF784FE10B14FF0FF30CBE79DF8000088
:104C4000C010CB4908720020C4E71CB580208DF845
:104C50000000C74A1268917CC54A526810786B46BA
:104C60000122FDF76BFE10B14FF0FF301CBD642038
:104C7000FDF751F900208DF80000BD4A1268917CC3
:104C8000BB4A526810786B460122FDF757FE10B1FF
:104C90004FF0FF30EAE7B64A1268917DB44A526895
:104CA00010786B460622FDF7ABFE10B14FF0FF30D7
:104CB000DCE79DF80500C007400F9DF8031001F0E8
:104CC000010140EA41009DF8011001F0010140EAB4
:104CD000010494B1012C03D10121A548C17431E034
:104CE000022C03D10021A248C1742BE02146A1A0CF
:104CF00002F07CF94FF0FF30B8E79D4A1268D17896
:104D00009B4A526810786B460122FDF779FE10B17C
:104D10004FF0FF30AAE79DF8000000F00F042CB917
:104D20009E4802F063F94FF0FF309FE7042C06D154
:104D30009BA002F05BF901218D48C17402E00021C3
:104D40008B48C174FF218A488172FF20884908720C
:104D5000FF2187484172C1724FF6FF71C181FF2167
:104D6000017481740121017380F82210002180F800
:104D7000231041750175163001604160816016385D
:104D800080F8241080F82510C1844FF4FA60FFF7F2
:104D90001AFF10B14FF0FF3068E70220FFF7D1FE95
:104DA00010B14FF0FF3061E72A20FFF7D2FD10B1BC
:104DB0004FF0FF305AE73220FFF777FE10B14FF087
:104DC000FF3053E70020FFF78FFD10B14FF0FF30A9
:104DD0004CE70020FFF706FC10B14FF0FF3045E72D
:104DE0000020FFF79AFB002040E770477CB504469F
:104DF0000D465F48807A00F0700010B94FF0FF3028
:104E00007CBD5B4A1268117B594A526810786B4628
:104E10000622FDF7F5FD10B14FF0FF30F0E79DF8E9
:104E200001009DF8001040EA012000B220809DF8AA
:104E300003009DF8021040EA012000B260809DF856
:104E400005009DF8041040EA012000B2A08015B1D1
:104E50002846FFF7CAFF0020D2E77CB504460D467E
:104E60004348807A00F0080010B94FF0FF307CBD55
:104E70003F4A1268517B3E4A526810786B460622C0
:104E8000FDF7BEFD10B14FF0FF30F0E79DF80100D7
:104E90009DF8001040EA012000B220809DF8030038
:104EA0009DF8021040EA012000B260809DF80500E4
:104EB0009DF8041040EA012000B2A08015B12846F8
:104EC000FFF793FF0020D2E72DE9FE4F05460C4681
:104ED0002748807A18B94FF0FF30BDE8FE8F244A8A
:104EE0001268917B224A5268107802AB0222FDF7C9
:104EF00087FD10B14FF0FF30EFE79DF809009DF8F6
:104F0000081040EA012006B214B12046FFF76DFFF9
:104F100017494968C88804F0DBFC154901904968C5
:104F2000B1F9080004F0BCFC8346304604F0B8FC3C
:104F30005946009004F01CFE8246019904F07EFB65
:104F400081461F4904F00CFB80464FF08F4104F06E
:104F500007FD074604F068FC28600020BDE710B597
:104F600088B004461CB94FF0FF3008B010BD29E0EE
:104F700060010020556E737570706F7274656420E7
:104F8000736F6674776172652070726F6475637495
:104F9000207265762025642E0A0000001CAB0008F4
:104FA00048616C662073656E73697469766974799B
:104FB000207061727420666F756E642E0D0A000099
:104FC00000000C42206830B9606820B9A06810B9B0
:104FD000002008B010BDFA494968087806AB0322E2
:104FE0001146FDF70DFD10B14FF0FF30F1E79DF8D0
:104FF0001800082101EB201000F00F00ADF80000B0
:105000009DF8190001EB201000F00F00ADF8020030
:105010009DF81A0001EB201000F00F00ADF804001D
:1050200020684100BDF90000403091FBF0F000B273
:10503000ADF8100060684100BDF90200403091FBFE
:10504000F0F000B2ADF81200A0684100BDF9040014
:10505000403091FBF0F000B2ADF81400D849496837
:10506000087806AB06221146FDF7CAFC10B14FF0D6
:10507000FF30AEE79DF819009DF8181040EA0120B6
:1050800000B2ADF808009DF81B009DF81A1040EA28
:10509000012000B2ADF80A009DF81D009DF81C101B
:1050A00040EA012000B2ADF80C00BDF81000BDF8D8
:1050B0000810084400B2ADF81000BDF81200BDF8A9
:1050C0000A10084400B2ADF81200BDF81400BDF893
:1050D0000C10084400B2ADF81400BDF81000000A2E
:1050E0008DF81800BDF81000C0B28DF81900BDF899
:1050F0001200000A8DF81A00BDF81200C0B28DF837
:105100001B00BDF81400000A8DF81C00BDF8140047
:10511000C0B28DF81D00AA494968087806AB06227E
:105120001146FDF70BFC10B14FF0FF3051E70020A6
:105130004FE70146A248007A30B1012807D0022883
:1051400009D003280FD10AE0FA2008800EE04FF4BE
:10515000FA7008800AE04FF47A70088006E04FF495
:10516000FA60088002E00020088000BF00BF002035
:10517000704701469248407A30B1012807D0022892
:1051800008D003280CD108E0022008700BE00420AE
:10519000087008E00820087005E01020087002E0A0
:1051A0004FF0FF30704700BF8548C07C18B10878C9
:1051B0004006000E08700020F4E701468048C07ADF
:1051C000082817D2DFE800F01704070A0D1013189B
:1051D000BC20088013E06220088010E02A200880AC
:1051E0000DE0142008800AE00A20088007E005206E
:1051F000088004E000BF00BF0020088000BF00BF9F
:105200000020704701466E4890F8240010B14FF01E
:10521000FF3070476A48C08908800020F9E70146DE
:1052200000200880401E704701464FF0FF30704755
:1052300001466348007A30B1012807D0022808D01F
:1052400003280CD108E05F4808600BE05E48086066
:1052500008E05E48086005E05D48086002E04FF045
:10526000FF30704700BF0020FBE701465448407AFA
:1052700030B1012808D002280AD0032810D10BE051
:105280004FF4804008800EE041F69C7008800AE0F0
:105290004FF48050088006E04FF40060088002E080
:1052A0004FF0FF30704700BF4548C07C10B1088800
:1052B000401008800020F5E701464148007C087056
:1052C0000020704701463E48807A10B101200870E6
:1052D00001E0002008700020704738B504463848C7
:1052E000807A10B94FF0FF3038BD354A1268117C12
:1052F000334A526810786B460222FDF781FB10B1E9
:105300004FF0FF30F0E79DF801009DF8001040EAF3
:10531000012000B220800020E6E72DE9FE4F07467D
:10532000884692461D46DDF830B000260024244809
:1053300090F8240010B1601EBDE8FE8F0020287098
:105340001F48807A10B94FF0FF30F5E71C48007C09
:1053500010B94FF0FF30EFE71948007C00F0400033
:1053600008B1B01CC6B21648007C00F0200008B19D
:10537000B01CC6B21248007C00F0100008B1B01C8E
:10538000C6B20F48007C00F0080008B1B01DC6B2DC
:105390000B4A1268917A0A4A526810786B460222C8
:1053A000FDF72EFB10B14FF0FF30C5E79DF801006F
:1053B0009DF8001040EA0129B1450BDA0020BBE757
:1053C00060010020000003430000834233330342A6
:1053D00033338341FC4840684088B9EB600F17DDE8
:1053E000F94A1268517CF84A526810786B460122DB
:1053F000FDF706FB10B14FF0FF309DE79DF8000070
:1054000000F0100020B1FFF791F96FF0010093E771
:105410005046FFF7EAFCEC4A1268D17AEA4A526831
:1054200010786B463246FDF7EBFA10B14FF0FF30C3
:1054300082E799FBF6F0401E8BF8000000202870F0
:10544000B4422AD0E048007C00F0080028B3601C79
:105450001DF800001DF8041040EA012000B2A8F871
:105460000000E01C1DF80010A01C1DF8000041EA1F
:10547000002000B2A8F80200601D1DF80010201DD9
:105480001DF8000041EA002000B2A8F804002878C6
:1054900040F008002870A01D84B2B44213D0CA485E
:1054A000007C00F0400070B1601C1DF800001DF889
:1054B000041040EA012000B23880287840F0400013
:1054C0002870A01C84B2B44213D0BF48007C00F006
:1054D000200070B1601C1DF800001DF8041040EAA7
:1054E000012000B27880287840F020002870A01CAD
:1054F00084B2B44213D0B448007C00F0100070B104
:10550000601C1DF800001DF8041040EA012000B2E4
:10551000B880287840F010002870A01C84B20020C9
:105520000AE7F8B504460F461646A74890F8240047
:1055300010B94FF0FF30F8BDA348807A10B94FF092
:10554000FF30F8E7A04A1268917A9F4A52681078B3
:105550006B460222FDF754FA10B14FF0FF30EAE734
:105560009DF801009DF8001040EA0125A54203DAEC
:1055700000203070401EDEE7934840684088B5EB5D
:10558000600F17DD904A1268517C8F4A526810787C
:105590006B460122FDF734FA10B14FF0FF30CAE735
:1055A0009DF8000000F0100020B1FFF7BFF86FF089
:1055B0000100C0E7E2B2844B1B68D97A824B5B687A
:1055C00018783B46FDF71CFA10B14FF0FF30B2E7F8
:1055D00095FBF4F0401E30700020ACE701467A489D
:1055E00080F82210002070477CB50546764949684E
:1055F000087801AB04220D21FDF702FA08B107205B
:105600007CBD9DF80700C0F301109DF8041001F067
:10561000E00140EAE1008DF800009DF80700C0F3CA
:1056200081009DF8051001F0E00140EAE1008DF8ED
:1056300001009DF8070000F003009DF8061001F03E
:10564000E00140EAE1008DF8020000241CE01DF8B2
:10565000040018B9002045F8240013E05B4845F821
:10566000240006E055F82400594904F079F945F87A
:1056700024001DF80400401EC0B20DF804000028EC
:10568000F0D100BF601CC4B2032CE0DB0020B7E700
:105690002DE9FE4F06460F4600256846FFF7A4FF9A
:1056A000002442E056F8240057F82410A0EB010A29
:1056B000BAF1000F01DB514601E0CAF100010846D2
:1056C00004F0EEF883464FF08F4103F0B7FF8046B9
:1056D0005DF82400002104F073F816D05DF8241062
:1056E000404603F0ABFF82464FF07E5104F040FA93
:1056F000814629F0004A3748416A504604F0FCF9D7
:1057000012D20120A04005430EE03248C169404654
:1057100004F0F2F805D32F48016A404604F0ECF992
:1057200002D20120A0400543641C032CBADB2846AA
:10573000BDE8FE8F2DE9FC5F06460F460025224995
:105740004968087801AB03220D21FDF759F910B122
:105750000720BDE8FC9F9DF8040000F01F008DF8B5
:1057600004009DF8050000F01F008DF805009DF86D
:10577000060000F01F008DF80600002462E056F8D5
:10578000240057F82410A0EB010BBBF1000F01DB44
:10579000594601E0CBF10001084604F081F84FF0D2
:1057A0008F41009003F04AFF814601A8005DC0B31D
:1057B0000849086804F08CF883465946064803F007
:1057C0003DFF80460FE00000600100207B14AE3EEC
:1057D0001D5A843F789D000800B04C45FE49404664
:1057E00004F0BEF8804601A8005D401EC0B201A9C9
:1057F00008550028F2D14146484603F01FFF834672
:105800004FF07E5104F0B4F982462AF0004BF34881
:105810008169584604F070F913D20120A040054375
:105820000FE0FFE7ED480169484604F065F805D34D
:10583000EA484169484604F05FF902D20120A040DD
:105840000543641C032C9ADB284682E72DE9F04FC0
:1058500087B005460C46914601208DF810000020C7
:105860008DF81100DE4A1268917CDD4A526810788A
:1058700004AB0222FDF762F820B14FF0FF3007B011
:10588000BDE8F08FC820FCF746FB00208DF8100023
:10589000D34A1268D17BD24A5268107804AB0122F5
:1058A000FDF74CF810B14FF0FF30E8E7CC4A126832
:1058B0005179CB4A5268107804AB0122FDF73EF8CB
:1058C00010B14FF0FF30DAE7C54A1268917CC44A44
:1058D0005268107804AB0122FDF730F810B14FF098
:1058E000FF30CCE7BE4A1268D17DBD4A52681078BD
:1058F00004AB0122FDF722F810B14FF0FF30BEE7F4
:10590000B74A12681179B64A5268107804AB01227E
:10591000FDF714F810B14FF0FF30B0E70C208DF810
:105920001000AF4A12681179AD4A5268107804AB82
:105930000122FDF703F810B14FF0FF309FE70F2071
:10594000FCF7E9FAA648806A407A8DF81000A44A6C
:1059500012689178A24A5268107804AB0122FCF7D1
:10596000EDFF10B14FF0FF3089E79D48806A007A63
:105970008DF810009A4A12685178994A5268107846
:1059800004AB0122FCF7DAFF10B14FF0FF3076E7ED
:10599000B9F1000F07D09248806A807A40F0E000A9
:1059A0008DF8100004E08E48806A807A8DF810002F
:1059B0008B4A126891798A4A5268107804AB0122A6
:1059C000FCF7BCFF10B14FF0FF3058E7B9F1000F02
:1059D00007D08348806AC07A40F0E0008DF810005C
:1059E00003E07E48C07A8DF810007D4A1268D179B4
:1059F0007B4A5268107804AB0122FCF79FFF10B17C
:105A00004FF0FF303BE7B9F1000F02D0C820FCF7A0
:105A100082FA40208DF81000714A12681179704A9C
:105A20005268107804AB0122FCF788FF10B14FF0E8
:105A3000FF3024E778208DF81000694A1268517908
:105A4000674A5268107804AB0122FCF777FF10B167
:105A50004FF0FF3013E761498889FCF75CFA0020BA
:105A60008DF810005E4A126851795D4A52681078CC
:105A700004AB0122FCF762FF10B14FF0FF30FEE6ED
:105A8000574A1268917A564A5268107804AB02223B
:105A9000FCF7B6FF10B14FF0FF30F0E69DF81100B3
:105AA0009DF8101040EA012B0C209BFBF0F0C6B2D1
:105AB0000020A86068602860A06060602060824666
:105AC00065E0474A1268D17A454A5268107804ABBB
:105AD0000C22FCF795FF10B14FF0FF30CFE69DF898
